{
    "contractName": "PolyNoise",
    "abi": [
        {
            "inputs": [
                {
                    "internalType": "string",
                    "name": "_name",
                    "type": "string"
                },
                {
                    "internalType": "string",
                    "name": "_symbol",
                    "type": "string"
                }
            ],
            "stateMutability": "nonpayable",
            "type": "constructor"
        },
        {
            "anonymous": false,
            "inputs": [
                {
                    "indexed": true,
                    "internalType": "address",
                    "name": "owner",
                    "type": "address"
                },
                {
                    "indexed": true,
                    "internalType": "address",
                    "name": "approved",
                    "type": "address"
                },
                {
                    "indexed": true,
                    "internalType": "uint256",
                    "name": "tokenId",
                    "type": "uint256"
                }
            ],
            "name": "Approval",
            "type": "event"
        },
        {
            "anonymous": false,
            "inputs": [
                {
                    "indexed": true,
                    "internalType": "address",
                    "name": "owner",
                    "type": "address"
                },
                {
                    "indexed": true,
                    "internalType": "address",
                    "name": "operator",
                    "type": "address"
                },
                {
                    "indexed": false,
                    "internalType": "bool",
                    "name": "approved",
                    "type": "bool"
                }
            ],
            "name": "ApprovalForAll",
            "type": "event"
        },
        {
            "anonymous": false,
            "inputs": [
                {
                    "indexed": true,
                    "internalType": "address",
                    "name": "from",
                    "type": "address"
                },
                {
                    "indexed": true,
                    "internalType": "address",
                    "name": "to",
                    "type": "address"
                },
                {
                    "indexed": true,
                    "internalType": "uint256",
                    "name": "tokenId",
                    "type": "uint256"
                }
            ],
            "name": "Transfer",
            "type": "event"
        },
        {
            "inputs": [
                {
                    "internalType": "address",
                    "name": "to",
                    "type": "address"
                },
                {
                    "internalType": "uint256",
                    "name": "tokenId",
                    "type": "uint256"
                }
            ],
            "name": "approve",
            "outputs": [],
            "stateMutability": "nonpayable",
            "type": "function"
        },
        {
            "inputs": [
                {
                    "internalType": "address",
                    "name": "owner",
                    "type": "address"
                }
            ],
            "name": "balanceOf",
            "outputs": [
                {
                    "internalType": "uint256",
                    "name": "",
                    "type": "uint256"
                }
            ],
            "stateMutability": "view",
            "type": "function"
        },
        {
            "inputs": [
                {
                    "internalType": "uint16",
                    "name": "_amount",
                    "type": "uint16"
                }
            ],
            "name": "batchMint",
            "outputs": [],
            "stateMutability": "payable",
            "type": "function"
        },
        {
            "inputs": [
                {
                    "internalType": "uint16",
                    "name": "",
                    "type": "uint16"
                }
            ],
            "name": "dna",
            "outputs": [
                {
                    "internalType": "uint256",
                    "name": "",
                    "type": "uint256"
                }
            ],
            "stateMutability": "view",
            "type": "function"
        },
        {
            "inputs": [
                {
                    "internalType": "uint256",
                    "name": "tokenId",
                    "type": "uint256"
                }
            ],
            "name": "getApproved",
            "outputs": [
                {
                    "internalType": "address",
                    "name": "",
                    "type": "address"
                }
            ],
            "stateMutability": "view",
            "type": "function"
        },
        {
            "inputs": [
                {
                    "internalType": "address",
                    "name": "owner",
                    "type": "address"
                },
                {
                    "internalType": "address",
                    "name": "operator",
                    "type": "address"
                }
            ],
            "name": "isApprovedForAll",
            "outputs": [
                {
                    "internalType": "bool",
                    "name": "",
                    "type": "bool"
                }
            ],
            "stateMutability": "view",
            "type": "function"
        },
        {
            "inputs": [],
            "name": "mint",
            "outputs": [],
            "stateMutability": "payable",
            "type": "function"
        },
        {
            "inputs": [],
            "name": "minted",
            "outputs": [
                {
                    "internalType": "uint16",
                    "name": "",
                    "type": "uint16"
                }
            ],
            "stateMutability": "view",
            "type": "function"
        },
        {
            "inputs": [],
            "name": "name",
            "outputs": [
                {
                    "internalType": "string",
                    "name": "",
                    "type": "string"
                }
            ],
            "stateMutability": "view",
            "type": "function"
        },
        {
            "inputs": [
                {
                    "internalType": "uint256",
                    "name": "tokenId",
                    "type": "uint256"
                }
            ],
            "name": "ownerOf",
            "outputs": [
                {
                    "internalType": "address",
                    "name": "",
                    "type": "address"
                }
            ],
            "stateMutability": "view",
            "type": "function"
        },
        {
            "inputs": [
                {
                    "internalType": "address",
                    "name": "from",
                    "type": "address"
                },
                {
                    "internalType": "address",
                    "name": "to",
                    "type": "address"
                },
                {
                    "internalType": "uint256",
                    "name": "tokenId",
                    "type": "uint256"
                }
            ],
            "name": "safeTransferFrom",
            "outputs": [],
            "stateMutability": "nonpayable",
            "type": "function"
        },
        {
            "inputs": [
                {
                    "internalType": "address",
                    "name": "from",
                    "type": "address"
                },
                {
                    "internalType": "address",
                    "name": "to",
                    "type": "address"
                },
                {
                    "internalType": "uint256",
                    "name": "tokenId",
                    "type": "uint256"
                },
                {
                    "internalType": "bytes",
                    "name": "_data",
                    "type": "bytes"
                }
            ],
            "name": "safeTransferFrom",
            "outputs": [],
            "stateMutability": "nonpayable",
            "type": "function"
        },
        {
            "inputs": [
                {
                    "internalType": "address",
                    "name": "operator",
                    "type": "address"
                },
                {
                    "internalType": "bool",
                    "name": "approved",
                    "type": "bool"
                }
            ],
            "name": "setApprovalForAll",
            "outputs": [],
            "stateMutability": "nonpayable",
            "type": "function"
        },
        {
            "inputs": [
                {
                    "internalType": "bytes4",
                    "name": "interfaceId",
                    "type": "bytes4"
                }
            ],
            "name": "supportsInterface",
            "outputs": [
                {
                    "internalType": "bool",
                    "name": "",
                    "type": "bool"
                }
            ],
            "stateMutability": "view",
            "type": "function"
        },
        {
            "inputs": [],
            "name": "symbol",
            "outputs": [
                {
                    "internalType": "string",
                    "name": "",
                    "type": "string"
                }
            ],
            "stateMutability": "view",
            "type": "function"
        },
        {
            "inputs": [
                {
                    "internalType": "uint256",
                    "name": "tokenId",
                    "type": "uint256"
                }
            ],
            "name": "tokenURI",
            "outputs": [
                {
                    "internalType": "string",
                    "name": "",
                    "type": "string"
                }
            ],
            "stateMutability": "view",
            "type": "function"
        },
        {
            "inputs": [],
            "name": "totalSupply",
            "outputs": [
                {
                    "internalType": "uint16",
                    "name": "",
                    "type": "uint16"
                }
            ],
            "stateMutability": "view",
            "type": "function"
        },
        {
            "inputs": [
                {
                    "internalType": "address",
                    "name": "from",
                    "type": "address"
                },
                {
                    "internalType": "address",
                    "name": "to",
                    "type": "address"
                },
                {
                    "internalType": "uint256",
                    "name": "tokenId",
                    "type": "uint256"
                }
            ],
            "name": "transferFrom",
            "outputs": [],
            "stateMutability": "nonpayable",
            "type": "function"
        }
    ],
    "bytecode": "60806040526006805465ffffffffffff1916652710000000001790553480156200002857600080fd5b5060405162001c6138038062001c618339810160408190526200004b91620001f8565b8151829082906200006490600090602085019062000085565b5080516200007a90600190602084019062000085565b50505050506200029f565b828054620000939062000262565b90600052602060002090601f016020900481019282620000b7576000855562000102565b82601f10620000d257805160ff191683800117855562000102565b8280016001018555821562000102579182015b8281111562000102578251825591602001919060010190620000e5565b506200011092915062000114565b5090565b5b8082111562000110576000815560010162000115565b634e487b7160e01b600052604160045260246000fd5b600082601f8301126200015357600080fd5b81516001600160401b03808211156200017057620001706200012b565b604051601f8301601f19908116603f011681019082821181831017156200019b576200019b6200012b565b81604052838152602092508683858801011115620001b857600080fd5b600091505b83821015620001dc5785820183015181830184015290820190620001bd565b83821115620001ee5760008385830101525b9695505050505050565b600080604083850312156200020c57600080fd5b82516001600160401b03808211156200022457600080fd5b620002328683870162000141565b935060208501519150808211156200024957600080fd5b50620002588582860162000141565b9150509250929050565b600181811c908216806200027757607f821691505b602082108114156200029957634e487b7160e01b600052602260045260246000fd5b50919050565b6119b280620002af6000396000f3fe6080604052600436106101095760003560e01c80634f02c42011610095578063a22cb46511610064578063a22cb465146102ee578063b88d4fde1461030e578063c87b56dd1461032e578063cd08f22b1461034e578063e985e9c51461036157600080fd5b80634f02c420146102785780636352211e1461029957806370a08231146102b957806395d89b41146102d957600080fd5b80631249c58b116100dc5780631249c58b146101bf57806318160ddd146101c757806323b872dd146101fd578063276a20f31461021d57806342842e0e1461025857600080fd5b806301ffc9a71461010e57806306fdde0314610143578063081812fc14610165578063095ea7b31461019d575b600080fd5b34801561011a57600080fd5b5061012e610129366004611430565b6103aa565b60405190151581526020015b60405180910390f35b34801561014f57600080fd5b506101586103fc565b60405161013a91906114a5565b34801561017157600080fd5b506101856101803660046114b8565b61048e565b6040516001600160a01b03909116815260200161013a565b3480156101a957600080fd5b506101bd6101b83660046114ed565b610528565b005b6101bd61063e565b3480156101d357600080fd5b506006546101ea90640100000000900461ffff1681565b60405161ffff909116815260200161013a565b34801561020957600080fd5b506101bd610218366004611517565b610774565b34801561022957600080fd5b5061024a610238366004611553565b60076020526000908152604090205481565b60405190815260200161013a565b34801561026457600080fd5b506101bd610273366004611517565b6107a5565b34801561028457600080fd5b506006546101ea9062010000900461ffff1681565b3480156102a557600080fd5b506101856102b43660046114b8565b6107c0565b3480156102c557600080fd5b5061024a6102d4366004611577565b610837565b3480156102e557600080fd5b506101586108be565b3480156102fa57600080fd5b506101bd610309366004611592565b6108cd565b34801561031a57600080fd5b506101bd6103293660046115e4565b6108dc565b34801561033a57600080fd5b506101586103493660046114b8565b610914565b6101bd61035c366004611553565b610a18565b34801561036d57600080fd5b5061012e61037c3660046116c0565b6001600160a01b03918216600090815260056020908152604080832093909416825291909152205460ff1690565b60006001600160e01b031982166380ac58cd60e01b14806103db57506001600160e01b03198216635b5e139f60e01b145b806103f657506301ffc9a760e01b6001600160e01b03198316145b92915050565b60606000805461040b906116f3565b80601f0160208091040260200160405190810160405280929190818152602001828054610437906116f3565b80156104845780601f1061045957610100808354040283529160200191610484565b820191906000526020600020905b81548152906001019060200180831161046757829003601f168201915b5050505050905090565b6000818152600260205260408120546001600160a01b031661050c5760405162461bcd60e51b815260206004820152602c60248201527f4552433732313a20617070726f76656420717565727920666f72206e6f6e657860448201526b34b9ba32b73a103a37b5b2b760a11b60648201526084015b60405180910390fd5b506000908152600460205260409020546001600160a01b031690565b6000610533826107c0565b9050806001600160a01b0316836001600160a01b031614156105a15760405162461bcd60e51b815260206004820152602160248201527f4552433732313a20617070726f76616c20746f2063757272656e74206f776e656044820152603960f91b6064820152608401610503565b336001600160a01b03821614806105bd57506105bd813361037c565b61062f5760405162461bcd60e51b815260206004820152603860248201527f4552433732313a20617070726f76652063616c6c6572206973206e6f74206f7760448201527f6e6572206e6f7220617070726f76656420666f7220616c6c00000000000000006064820152608401610503565b6106398383610bea565b505050565b34662386f26fc100001461068f5760405162461bcd60e51b815260206004820152601860248201527724b731b7b93932b1ba1036b4b73a34b73390383934b1b29760411b6044820152606401610503565b60065461ffff640100000000820481166201000090920416106106f45760405162461bcd60e51b815260206004820152601b60248201527f457665727920746f6b656e206d696e74656420616c72656164792e00000000006044820152606401610503565b61070062989680610c58565b6006805460079160009162010000900461ffff1690600261072083611744565b91906101000a81548161ffff021916908361ffff16021790555061ffff1661ffff1681526020019081526020016000208190555061077233600660029054906101000a900461ffff1661ffff16610cf3565b565b61077e3382610d0d565b61079a5760405162461bcd60e51b815260040161050390611766565b610639838383610e04565b610639838383604051806020016040528060008152506108dc565b6000818152600260205260408120546001600160a01b0316806103f65760405162461bcd60e51b815260206004820152602960248201527f4552433732313a206f776e657220717565727920666f72206e6f6e657869737460448201526832b73a103a37b5b2b760b91b6064820152608401610503565b60006001600160a01b0382166108a25760405162461bcd60e51b815260206004820152602a60248201527f4552433732313a2062616c616e636520717565727920666f7220746865207a65604482015269726f206164647265737360b01b6064820152608401610503565b506001600160a01b031660009081526003602052604090205490565b60606001805461040b906116f3565b6108d8338383610fa4565b5050565b6108e63383610d0d565b6109025760405162461bcd60e51b815260040161050390611766565b61090e84848484611073565b50505050565b6000818152600260205260409020546060906001600160a01b03166109935760405162461bcd60e51b815260206004820152602f60248201527f4552433732314d657461646174613a2055524920717565727920666f72206e6f60448201526e3732bc34b9ba32b73a103a37b5b2b760891b6064820152608401610503565b60006109c66040805180820190915260148152733634b735ba37b6b2ba30b230ba30b9b2b93b32b960611b602082015290565b905060008151116109e65760405180602001604052806000815250610a11565b806109f0846110a6565b604051602001610a019291906117b7565b6040516020818303038152906040525b9392505050565b60018161ffff1611610a6c5760405162461bcd60e51b815260206004820152601d60248201527f557365207468652073696d706c65206d696e742066756e6374696f6e2e0000006044820152606401610503565b610a8161ffff8216662386f26fc100006117e6565b66ffffffffffffff163414610ad35760405162461bcd60e51b815260206004820152601860248201527724b731b7b93932b1ba1036b4b73a34b73390383934b1b29760411b6044820152606401610503565b60065461ffff6401000000008204811691610af691849162010000900416611815565b61ffff1610610b475760405162461bcd60e51b815260206004820152601b60248201527f457665727920746f6b656e206d696e74656420616c72656164792e00000000006044820152606401610503565b60005b8161ffff168161ffff1610156108d857610b6662989680610c58565b6006805460079160009162010000900461ffff16906002610b8683611744565b91906101000a81548161ffff021916908361ffff16021790555061ffff1661ffff16815260200190815260200160002081905550610bd833600660029054906101000a900461ffff1661ffff16610cf3565b80610be281611744565b915050610b4a565b600081815260046020526040902080546001600160a01b0319166001600160a01b0384169081179091558190610c1f826107c0565b6001600160a01b03167f8c5be1e5ebec7d5bd14f71427d1e84f3dd0314c0f7b2291e5b200ac8c7c3b92560405160405180910390a45050565b6006805460009161ffff9091169082610c7083611744565b82546101009290920a61ffff81810219909316919092169190910217905550600654604080514260208201523360601b6bffffffffffffffffffffffff19169181019190915260f09190911b6001600160f01b031916605482015282906056016040516020818303038152906040528051906020012060001c6103f69190611848565b6108d88282604051806020016040528060008152506111a4565b6000818152600260205260408120546001600160a01b0316610d865760405162461bcd60e51b815260206004820152602c60248201527f4552433732313a206f70657261746f7220717565727920666f72206e6f6e657860448201526b34b9ba32b73a103a37b5b2b760a11b6064820152608401610503565b6000610d91836107c0565b9050806001600160a01b0316846001600160a01b03161480610dcc5750836001600160a01b0316610dc18461048e565b6001600160a01b0316145b80610dfc57506001600160a01b0380821660009081526005602090815260408083209388168352929052205460ff165b949350505050565b826001600160a01b0316610e17826107c0565b6001600160a01b031614610e7f5760405162461bcd60e51b815260206004820152602960248201527f4552433732313a207472616e73666572206f6620746f6b656e2074686174206960448201526839903737ba1037bbb760b91b6064820152608401610503565b6001600160a01b038216610ee15760405162461bcd60e51b8152602060048201526024808201527f4552433732313a207472616e7366657220746f20746865207a65726f206164646044820152637265737360e01b6064820152608401610503565b610eec600082610bea565b6001600160a01b0383166000908152600360205260408120805460019290610f1590849061185c565b90915550506001600160a01b0382166000908152600360205260408120805460019290610f43908490611873565b909155505060008181526002602052604080822080546001600160a01b0319166001600160a01b0386811691821790925591518493918716917fddf252ad1be2c89b69c2b068fc378daa952ba7f163c4a11628f55a4df523b3ef91a4505050565b816001600160a01b0316836001600160a01b031614156110065760405162461bcd60e51b815260206004820152601960248201527f4552433732313a20617070726f766520746f2063616c6c6572000000000000006044820152606401610503565b6001600160a01b03838116600081815260056020908152604080832094871680845294825291829020805460ff191686151590811790915591519182527f17307eab39ab6107e8899845ad3d59bd9653f200f220920489ca2b5937696c31910160405180910390a3505050565b61107e848484610e04565b61108a848484846111d7565b61090e5760405162461bcd60e51b81526004016105039061188b565b6060816110ca5750506040805180820190915260018152600360fc1b602082015290565b8160005b81156110f457806110de816118dd565b91506110ed9050600a836118f8565b91506110ce565b60008167ffffffffffffffff81111561110f5761110f6115ce565b6040519080825280601f01601f191660200182016040528015611139576020820181803683370190505b5090505b8415610dfc5761114e60018361185c565b915061115b600a86611848565b611166906030611873565b60f81b81838151811061117b5761117b61190c565b60200101906001600160f81b031916908160001a90535061119d600a866118f8565b945061113d565b6111ae83836112d5565b6111bb60008484846111d7565b6106395760405162461bcd60e51b81526004016105039061188b565b60006001600160a01b0384163b156112ca57604051630a85bd0160e11b81526001600160a01b0385169063150b7a029061121b903390899088908890600401611922565b6020604051808303816000875af1925050508015611256575060408051601f3d908101601f191682019092526112539181019061195f565b60015b6112b0573d808015611284576040519150601f19603f3d011682016040523d82523d6000602084013e611289565b606091505b5080516112a85760405162461bcd60e51b81526004016105039061188b565b805181602001fd5b6001600160e01b031916630a85bd0160e11b149050610dfc565b506001949350505050565b6001600160a01b03821661132b5760405162461bcd60e51b815260206004820181905260248201527f4552433732313a206d696e7420746f20746865207a65726f20616464726573736044820152606401610503565b6000818152600260205260409020546001600160a01b0316156113905760405162461bcd60e51b815260206004820152601c60248201527f4552433732313a20746f6b656e20616c7265616479206d696e746564000000006044820152606401610503565b6001600160a01b03821660009081526003602052604081208054600192906113b9908490611873565b909155505060008181526002602052604080822080546001600160a01b0319166001600160a01b03861690811790915590518392907fddf252ad1be2c89b69c2b068fc378daa952ba7f163c4a11628f55a4df523b3ef908290a45050565b6001600160e01b03198116811461142d57600080fd5b50565b60006020828403121561144257600080fd5b8135610a1181611417565b60005b83811015611468578181015183820152602001611450565b8381111561090e5750506000910152565b6000815180845261149181602086016020860161144d565b601f01601f19169290920160200192915050565b602081526000610a116020830184611479565b6000602082840312156114ca57600080fd5b5035919050565b80356001600160a01b03811681146114e857600080fd5b919050565b6000806040838503121561150057600080fd5b611509836114d1565b946020939093013593505050565b60008060006060848603121561152c57600080fd5b611535846114d1565b9250611543602085016114d1565b9150604084013590509250925092565b60006020828403121561156557600080fd5b813561ffff81168114610a1157600080fd5b60006020828403121561158957600080fd5b610a11826114d1565b600080604083850312156115a557600080fd5b6115ae836114d1565b9150602083013580151581146115c357600080fd5b809150509250929050565b634e487b7160e01b600052604160045260246000fd5b600080600080608085870312156115fa57600080fd5b611603856114d1565b9350611611602086016114d1565b925060408501359150606085013567ffffffffffffffff8082111561163557600080fd5b818701915087601f83011261164957600080fd5b81358181111561165b5761165b6115ce565b604051601f8201601f19908116603f01168101908382118183101715611683576116836115ce565b816040528281528a602084870101111561169c57600080fd5b82602086016020830137600060208483010152809550505050505092959194509250565b600080604083850312156116d357600080fd5b6116dc836114d1565b91506116ea602084016114d1565b90509250929050565b600181811c9082168061170757607f821691505b6020821081141561172857634e487b7160e01b600052602260045260246000fd5b50919050565b634e487b7160e01b600052601160045260246000fd5b600061ffff8083168181141561175c5761175c61172e565b6001019392505050565b60208082526031908201527f4552433732313a207472616e736665722063616c6c6572206973206e6f74206f6040820152701ddb995c881b9bdc88185c1c1c9bdd9959607a1b606082015260800190565b600083516117c981846020880161144d565b8351908301906117dd81836020880161144d565b01949350505050565b600066ffffffffffffff8083168185168183048111821515161561180c5761180c61172e565b02949350505050565b600061ffff8083168185168083038211156117dd576117dd61172e565b634e487b7160e01b600052601260045260246000fd5b60008261185757611857611832565b500690565b60008282101561186e5761186e61172e565b500390565b600082198211156118865761188661172e565b500190565b60208082526032908201527f4552433732313a207472616e7366657220746f206e6f6e20455243373231526560408201527131b2b4bb32b91034b6b83632b6b2b73a32b960711b606082015260800190565b60006000198214156118f1576118f161172e565b5060010190565b60008261190757611907611832565b500490565b634e487b7160e01b600052603260045260246000fd5b6001600160a01b038581168252841660208201526040810183905260806060820181905260009061195590830184611479565b9695505050505050565b60006020828403121561197157600080fd5b8151610a118161141756fea2646970667358221220e6ef4e82adfd01842e2c6907d79fdd54c5796599cf6c9e249904a638c41b6d4164736f6c634300080b0033",
    "sourcePath": "c:/Users/Tams Imets/Documents/MEGA/Projects/polygon-erc721-experiment/contracts/PolyNoise.sol",
    "compiler": {
        "name": "solc",
        "version": "0.8.11+commit.d7f03943"
    },
    "functionHashes": {
        "approve(address,uint256)": "095ea7b3",
        "balanceOf(address)": "70a08231",
        "batchMint(uint16)": "cd08f22b",
        "dna(uint16)": "276a20f3",
        "getApproved(uint256)": "081812fc",
        "isApprovedForAll(address,address)": "e985e9c5",
        "mint()": "1249c58b",
        "minted()": "4f02c420",
        "name()": "06fdde03",
        "ownerOf(uint256)": "6352211e",
        "safeTransferFrom(address,address,uint256)": "42842e0e",
        "safeTransferFrom(address,address,uint256,bytes)": "b88d4fde",
        "setApprovalForAll(address,bool)": "a22cb465",
        "supportsInterface(bytes4)": "01ffc9a7",
        "symbol()": "95d89b41",
        "tokenURI(uint256)": "c87b56dd",
        "totalSupply()": "18160ddd",
        "transferFrom(address,address,uint256)": "23b872dd"
    },
    "gasEstimates": {
        "creation": {
            "codeDepositCost": "1315600",
            "executionCost": "infinite",
            "totalCost": "infinite"
        },
        "external": {
            "approve(address,uint256)": "infinite",
            "balanceOf(address)": "2656",
            "batchMint(uint16)": "infinite",
            "dna(uint16)": "2561",
            "getApproved(uint256)": "4760",
            "isApprovedForAll(address,address)": "infinite",
            "mint()": "infinite",
            "minted()": "2347",
            "name()": "infinite",
            "ownerOf(uint256)": "2601",
            "safeTransferFrom(address,address,uint256)": "infinite",
            "safeTransferFrom(address,address,uint256,bytes)": "infinite",
            "setApprovalForAll(address,bool)": "26708",
            "supportsInterface(bytes4)": "534",
            "symbol()": "infinite",
            "tokenURI(uint256)": "infinite",
            "totalSupply()": "2369",
            "transferFrom(address,address,uint256)": "infinite"
        },
        "internal": {
            "_baseURI()": "infinite",
            "_randMod(uint256)": "infinite"
        }
    }
}